:020000020000FC
:040000000C949700C5
:0400BC000C9471002F
:1000E000189501FE14C0A9176AF0339530FD06C0BB
:1000F000292F20930801990FA69509C02A2F209334
:10010000080105C020E020930801E89401F802FEF0
:100110000DC0DB173AF08B2F8D2B282F21BBBB0F87
:10012000D69504C020E021BBE89402F818958FEF23
:100130008DBF81E28EBF00E800BF00E01FEF212FDE
:1001400020930701202F20930801212F20BB202F6F
:1001500021BB212F27B9202F28B9202F21B9212FEA
:1001600022B920E0209320012DE02093210122E0FC
:10017000209373002AE22093290129EB2093280180
:100180007894019908C0332791E0A0E8689401F8B9
:10019000409A0CD04098039908C04427B1E0D0E8B9
:1001A000689402F8409A02D04098EBCF50E064EC9B
:0C01B00079E0515060407040E1F7089584
:00000001FF
